{
  "_format": "hh-sol-artifact-1",
  "contractName": "PrintMyAsset",
  "sourceName": "contracts/printasset.sol",
  "abi": [
    {
      "inputs": [],
      "name": "printEth",
      "outputs": [
        {
          "internalType": "uint256",
          "name": "",
          "type": "uint256"
        }
      ],
      "stateMutability": "view",
      "type": "function"
    }
  ],
  "bytecode": "0x6080604052348015600f57600080fd5b5060cc80601d6000396000f3fe6080604052348015600f57600080fd5b506004361060285760003560e01c806349b7cd4c14602d575b600080fd5b60336047565b604051603e9190607d565b60405180910390f35b60003373ffffffffffffffffffffffffffffffffffffffff1631905090565b6000819050919050565b6077816066565b82525050565b6000602082019050609060008301846070565b9291505056fea2646970667358221220cb5c03baaa9700e8946d965ca68281a57cdf53452e5d863aa1f0b0e23ab1574b64736f6c634300081c0033",
  "linkReferences": {},
  "deployedLinkReferences": {}
}