{
  "_format": "hh-sol-artifact-1",
  "contractName": "AssetManager",
  "sourceName": "contracts/result.sol",
  "abi": [
    {
      "anonymous": false,
      "inputs": [
        {
          "indexed": true,
          "internalType": "uint256",
          "name": "assetId",
          "type": "uint256"
        },
        {
          "indexed": false,
          "internalType": "string",
          "name": "description",
          "type": "string"
        },
        {
          "indexed": false,
          "internalType": "address",
          "name": "owner",
          "type": "address"
        }
      ],
      "name": "AssetAdded",
      "type": "event"
    },
    {
      "inputs": [
        {
          "internalType": "string",
          "name": "description",
          "type": "string"
        }
      ],
      "name": "addAsset",
      "outputs": [],
      "stateMutability": "nonpayable",
      "type": "function"
    },
    {
      "inputs": [
        {
          "internalType": "uint256",
          "name": "assetId",
          "type": "uint256"
        }
      ],
      "name": "getAsset",
      "outputs": [
        {
          "internalType": "uint256",
          "name": "",
          "type": "uint256"
        },
        {
          "internalType": "string",
          "name": "",
          "type": "string"
        },
        {
          "internalType": "address",
          "name": "",
          "type": "address"
        }
      ],
      "stateMutability": "view",
      "type": "function"
    },
    {
      "inputs": [],
      "name": "getTotalAssets",
      "outputs": [
        {
          "internalType": "uint256",
          "name": "",
          "type": "uint256"
        }
      ],
      "stateMutability": "view",
      "type": "function"
    }
  ],
  "bytecode": "0x608060405260018055348015601357600080fd5b50610ae3806100236000396000f3fe608060405234801561001057600080fd5b50600436106100415760003560e01c80636e07302b14610046578063a7c6b52e14610064578063eac8f5b814610080575b600080fd5b61004e6100b2565b60405161005b9190610373565b60405180910390f35b61007e600480360381019061007991906104e8565b6100c7565b005b61009a6004803603810190610095919061055d565b6101d5565b6040516100a99392919061064a565b60405180910390f35b6000600180546100c291906106b7565b905090565b6000604051806060016040528060015481526020018381526020013373ffffffffffffffffffffffffffffffffffffffff16815250905080600080600154815260200190815260200160002060008201518160000155602082015181600101908161013291906108f7565b5060408201518160020160006101000a81548173ffffffffffffffffffffffffffffffffffffffff021916908373ffffffffffffffffffffffffffffffffffffffff1602179055509050506001547f6c60221bfa5c9c4ee8109ba8562fc401aa92a46606a02d979f9de6a8f97c2d0a83336040516101b19291906109c9565b60405180910390a2600160008154809291906101cc906109f9565b91905055505050565b60006060600080841180156101eb575060015484105b61022a576040517f08c379a000000000000000000000000000000000000000000000000000000000815260040161022190610a8d565b60405180910390fd5b6000806000868152602001908152602001600020604051806060016040529081600082015481526020016001820180546102639061071a565b80601f016020809104026020016040519081016040528092919081815260200182805461028f9061071a565b80156102dc5780601f106102b1576101008083540402835291602001916102dc565b820191906000526020600020905b8154815290600101906020018083116102bf57829003601f168201915b505050505081526020016002820160009054906101000a900473ffffffffffffffffffffffffffffffffffffffff1673ffffffffffffffffffffffffffffffffffffffff1673ffffffffffffffffffffffffffffffffffffffff16815250509050806000015181602001518260400151935093509350509193909250565b6000819050919050565b61036d8161035a565b82525050565b60006020820190506103886000830184610364565b92915050565b6000604051905090565b600080fd5b600080fd5b600080fd5b600080fd5b6000601f19601f8301169050919050565b7f4e487b7100000000000000000000000000000000000000000000000000000000600052604160045260246000fd5b6103f5826103ac565b810181811067ffffffffffffffff82111715610414576104136103bd565b5b80604052505050565b600061042761038e565b905061043382826103ec565b919050565b600067ffffffffffffffff821115610453576104526103bd565b5b61045c826103ac565b9050602081019050919050565b82818337600083830152505050565b600061048b61048684610438565b61041d565b9050828152602081018484840111156104a7576104a66103a7565b5b6104b2848285610469565b509392505050565b600082601f8301126104cf576104ce6103a2565b5b81356104df848260208601610478565b91505092915050565b6000602082840312156104fe576104fd610398565b5b600082013567ffffffffffffffff81111561051c5761051b61039d565b5b610528848285016104ba565b91505092915050565b61053a8161035a565b811461054557600080fd5b50565b60008135905061055781610531565b92915050565b60006020828403121561057357610572610398565b5b600061058184828501610548565b91505092915050565b600081519050919050565b600082825260208201905092915050565b60005b838110156105c45780820151818401526020810190506105a9565b60008484015250505050565b60006105db8261058a565b6105e58185610595565b93506105f58185602086016105a6565b6105fe816103ac565b840191505092915050565b600073ffffffffffffffffffffffffffffffffffffffff82169050919050565b600061063482610609565b9050919050565b61064481610629565b82525050565b600060608201905061065f6000830186610364565b818103602083015261067181856105d0565b9050610680604083018461063b565b949350505050565b7f4e487b7100000000000000000000000000000000000000000000000000000000600052601160045260246000fd5b60006106c28261035a565b91506106cd8361035a565b92508282039050818111156106e5576106e4610688565b5b92915050565b7f4e487b7100000000000000000000000000000000000000000000000000000000600052602260045260246000fd5b6000600282049050600182168061073257607f821691505b602082108103610745576107446106eb565b5b50919050565b60008190508160005260206000209050919050565b60006020601f8301049050919050565b600082821b905092915050565b6000600883026107ad7fffffffffffffffffffffffffffffffffffffffffffffffffffffffffffffffff82610770565b6107b78683610770565b95508019841693508086168417925050509392505050565b6000819050919050565b60006107f46107ef6107ea8461035a565b6107cf565b61035a565b9050919050565b6000819050919050565b61080e836107d9565b61082261081a826107fb565b84845461077d565b825550505050565b600090565b61083761082a565b610842818484610805565b505050565b5b818110156108665761085b60008261082f565b600181019050610848565b5050565b601f8211156108ab5761087c8161074b565b61088584610760565b81016020851015610894578190505b6108a86108a085610760565b830182610847565b50505b505050565b600082821c905092915050565b60006108ce600019846008026108b0565b1980831691505092915050565b60006108e783836108bd565b9150826002028217905092915050565b6109008261058a565b67ffffffffffffffff811115610919576109186103bd565b5b610923825461071a565b61092e82828561086a565b600060209050601f831160018114610961576000841561094f578287015190505b61095985826108db565b8655506109c1565b601f19841661096f8661074b565b60005b8281101561099757848901518255600182019150602085019450602081019050610972565b868310156109b457848901516109b0601f8916826108bd565b8355505b6001600288020188555050505b505050505050565b600060408201905081810360008301526109e381856105d0565b90506109f2602083018461063b565b9392505050565b6000610a048261035a565b91507fffffffffffffffffffffffffffffffffffffffffffffffffffffffffffffffff8203610a3657610a35610688565b5b600182019050919050565b7f417373657420646f6573206e6f74206578697374000000000000000000000000600082015250565b6000610a77601483610595565b9150610a8282610a41565b602082019050919050565b60006020820190508181036000830152610aa681610a6a565b905091905056fea2646970667358221220b429825ef12412748967bf0085906a6ce321e253838afdf57d8cd8a02096e77d64736f6c634300081c0033",
  "linkReferences": {},
  "deployedLinkReferences": {}
}